:100000000C942A000C9482010C943C000C943C004B
:100010000C943C000C943C000C943C000C943C0070
:100020000C943C000C943C000C943C000C943C0060
:100030000C943C000C943C000C943C000C943C0050
:100040000C943C000C943C000C943C000C943C0040
:100050000C943C0011241FBECFE5D8E0DEBFCDBF1D
:1000600020E0A0E6B0E001C01D92AA37B207E1F798
:100070000E9496010C9496030C940000CF93DF939A
:10008000C0E0D0E01DC086E690E00E947A0182E7E1
:1000900090E00E947A0160E070E08AEF93E40E94B1
:1000A000680186E690E00E947E0182E790E00E946F
:1000B0007E0160E070E08AEF93E40E94680121967F
:1000C000C530D10504F3DF91CF910895EF92FF92EF
:1000D0000F931F93CF93DF93809160009091610005
:1000E000019709F041C08AE690E00E944F02882300
:1000F00079F13AC081E0E816F10419F40E943E005B
:1001000023C08701000F111F000F111F02591F4F3D
:10011000C8010E947A01C2E0D0E0CE19DF09CC0FFD
:10012000DD1FCC0FDD1FCE59DF4FCE010E947A01BB
:1001300060E070E48CE995E40E946801C8010E94C7
:100140007E01CE010E947E018FEFE81AF80A02C0FC
:10015000E12CF12C83E0E816F10464F20E943E00E9
:100160001092610010926000DF91CF911F910F916A
:10017000FF90EF900895CF93DF9300D000D0CDB7DC
:10018000DEB742E064E4CE0101960E943801E12C22
:10019000F12C00E010E010C0C801880F991F880FF3
:1001A000991F4E2D62E48E599F4F0E9471012FEFCF
:1001B000E21AF20A0F5F1F4F033011056CF3E12CB6
:1001C000F12C00E010E010C0C801880F991F880FC3
:1001D000991F4E2D61E482599F4F0E9471013FEF9C
:1001E000E31AF30A0F5F1F4F033011056CF3E12C84
:1001F000F12C37C081E0E816F10459F40E943E006A
:100200008091600090916100019741F50E94660025
:1002100025C0C701880F991F880F991F9C012E596F
:100220003F4F6901C9010E947A0102E010E00E19F6
:100230001F09000F111F000F111F02591F4FC80186
:100240000E947A0160E070E080EA90E40E94400140
:10025000C6010E947E01C8010E947E013FEFE31AA1
:10026000F30A83E0E816F1042CF20E943E00BFCFAF
:10027000FC0110821182628343830E94A0010895D1
:10028000CF92DF92EF92FF926B017C010E94960267
:100290000E9499022DEB37E346E859E3C701B60106
:1002A0000E949D020E940F0320E030E008C008B6C3
:1002B00000FEFDCF88B7816088BF2F5F3F4F2617B4
:1002C0003707ACF313BEFF90EF90DF90CF90089507
:1002D00020E030E04AE754E40E949D020E94400181
:1002E000089521E0FC0120831182628343830E94F0
:1002F000A001089561E00E94FE01089560E00E945F
:10030000FE0108951F920F920FB60F9211248F9342
:100310009F9381E090E090936100809360009F91B3
:100320008F910F900FBE0F901F90189580E48BBF98
:1003300083E085BF78940E94BB0080E090E0089540
:10034000FC018181813021F480B7806180BF02C0CF
:1003500080B710BE82818234D9F018F4813431F034
:100360000895833439F18434B9F10895808181305E
:1003700061F42AB381E090E0038002C0880F991FE6
:100380000A94E2F7822B8ABB08958AB31ABA0895B9
:100390008081813061F427B381E090E0038002C066
:1003A000880F991F0A94E2F7822B87BB089587B3C1
:1003B00017BA08958081813061F424B381E090E020
:1003C000038002C0880F991F0A94E2F7822B84BB36
:1003D000089584B314BA08958081813061F421B303
:1003E00081E090E0038002C0880F991F0A94E2F731
:1003F000822B81BB089581B311BA0895FC019281CB
:100400009234D1F018F4913431F00895933429F1F5
:100410009434A1F10895613061F42BB381E090E050
:10042000038002C0880F991F0A94E2F7822B8BBBCE
:1004300008958BB31BBA0895613061F428B381E04D
:1004400090E0038002C0880F991F0A94E2F7822B84
:1004500088BB089588B318BA0895613061F425B354
:1004600081E090E0038002C0880F991F0A94E2F7B0
:10047000822B85BB089585B315BA0895613061F468
:1004800022B381E090E0038002C0880F991F0A9494
:10049000E2F7822B82BB089582B312BA0895FC0161
:1004A00092819234A9F018F4913431F035C093342C
:1004B000D9F0943429F130C089B390E0038002C0B0
:1004C000959587950A94E2F780FD28C080E008950D
:1004D00086B390E0038002C0959587950A94E2F771
:1004E00080FD1EC080E0089583B390E0038002C0C9
:1004F000959587950A94E2F780FD14C080E00895F1
:1005000080B390E0038002C0959587950A94E2F746
:1005100080FD0AC080E0089580E0089581E008959C
:1005200081E0089581E0089581E0089513BE12BE30
:10053000089583B7816083BF08950E94B1020C942F
:100540005C030E94550358F00E944E0340F029F4CA
:100550005F3F29F00C94450351110C9490030C94C7
:100560004B030E946D0368F39923B1F3552391F374
:10057000951B550BBB27AA2762177307840738F012
:100580009F5F5F4F220F331F441FAA1FA9F335D06F
:100590000E2E3AF0E0E832D091505040E695001C23
:1005A000CAF72BD0FE2F29D0660F771F881FBB1FDD
:1005B000261737074807AB07B0E809F0BB0B802DBB
:1005C000BF01FF2793585F4F3AF09E3F510578F0E7
:1005D0000C9445030C9490035F3FE4F3983ED4F3EE
:1005E000869577956795B795F7959F5FC9F7880FBB
:1005F000911D9695879597F90895E1E0660F771F0D
:10060000881FBB1F621773078407BA0720F0621B9D
:10061000730B840BBA0BEE1F88F7E09508950E94C8
:1006200016036894B1110C94900308950E94750309
:1006300088F09F5798F0B92F9927B751B0F0E1F0A3
:10064000660F771F881F991F1AF0BA95C9F714C053
:10065000B13091F00E948F03B1E008950C948F03A4
:10066000672F782F8827B85F39F0B93FCCF386958C
:1006700077956795B395D9F73EF4909580957095E9
:1006800061957F4F8F4F9F4F089597F99F6780E83F
:1006900070E060E008959FEF80EC089500240A94D4
:1006A0001616170618060906089500240A9412164D
:1006B0001306140605060895092E0394000C11F480
:1006C000882352F0BB0F40F4BF2B11F460FF04C02D
:1006D0006F5F7F4F8F4F9F4F089557FD9058440F86
:1006E000551F59F05F3F71F04795880F97FB991F91
:1006F00061F09F3F79F0879508951216130614064E
:10070000551FF2CF4695F1DF08C0161617061806DA
:10071000991FF1CF86957105610508940895E894B5
:10072000BB2766277727CB0197F90895F894FFCF69
:00000001FF
